:020000040000FA
:1000000000400020C5E7000001E8000003E8000010
:1000100000000000000000000000000000000000E0
:1000200000000000000000000000000005E80000E3
:10003000000000000000000007E8000009E80000E0
:100040000BE800000BE800004DE900000BE80000A1
:100050000BE8000000000000ED0E01000BE80000BE
:100060000BE800000BE800004D0B01000BE800005E
:100070000BE800000BE800000BE800000BE80000B4
:100080000BE8000095EA00000BE800000BE8000018
:100090000BE800000BE800000BE800000BE8000094
:1000A0000BE800000BE8000000000000000000006A
:1000B0000000000000000000000000000000000040
:1000C000074B10B51A781C00002A07D1054B002BEE
:1000D00002D0054800E000BF0123237010BDC046D8
:1000E000802D002000000000A4670200084B10B51E
:1000F000002B03D00749084800E000BF0748036809
:10010000002B03D0064B002B00D0984710BDC046F3
:100110000000000098000020A46702009800002062
:1001200000000000144B002B00D1124B9D464022D2
:1001300092029A1A924600218B460F461148124AA3
:10014000121A1DF032FD0D4B002B00D098470C4BBE
:10015000002B00D098470020002104000D000B4820
:100160001DF084FC14F0AEFF200029001BF03AFDC6
:1001700014F070FC000008000040002000000000A7
:100180000000000098000020582F00207D4E010044
:1001900037B50400A0680AF011FB019000280ED0CA
:1001A0006568074B9D4205D001AB00220121280064
:1001B0000AF0BEF905F048FF0028EBD001983EBDDB
:1001C000A8F40100F0B50D00002785B011000390E0
:1001D0001E0028000F4B022200970DF01FF8A81CEC
:1001E00080001BF011FA039B040003606B1E3D00AE
:1001F0000393436033688360039B9D4207D20135BC
:10020000AF00F0590AF08AFAE719B860F4E7200065
:1002100005B0F0BDFFFF000010B54A6801491BF0B2
:1002200043FB10BDB35C0200074B10B54268186079
:100230000020986018750138D86008005A601A616B
:10024000996117F036F810BDB0000020F8B50378BA
:100250000500002B1DD00F4C206C002804D0290075
:100260001DF0FEFD002814D028001DF003FE471CE1
:1002700038001BF0D6F9061E0BD03A0029001DF0FD
:1002800076FC054B054A1968043B99609A42FAD1FD
:100290002664F8BD282E0020802E0020642E002029
:1002A000F0B5AB4D06002868AF68436885B0019390
:1002B0002C00002F7BD1731E032B0BD81BF0E6F80C
:1002C0006B68984200D13BE1012E00D1D9E0032EAA
:1002D00000D135E1052E00D1DEE00D2E0AD19D487A
:1002E00016F0E7FF20681BF0EAF86368C018FFF714
:1002F000ADFF29E11B2E02D10123A36022E1082ECC
:1003000001D07F2E1BD121696268914200D819E18A
:10031000002320688668B518ED5C202D08D10133D4
:100320009D18A942F7D80126032B02DD033600E011
:100330000126891B32001BF008F90127D0E0092EA5
:1003400029D163682269D11A22689068824AC0184C
:1003500003AB05F0E3FF061E00D1F3E00025431CCC
:100360000BD1A06916F0A5FF63682269D11A226833
:100370009068C01800F0E4F9BBE023692068E91830
:10038000039B01355A1C03921A781BF0C0F8AE4249
:10039000F3D13500ADE03300203B5E2B00D9D1E036
:1003A0003200216920681BF0BAF80125A1E0012F75
:1003B00009D104234F2E00D190E002235B2E00D1FF
:1003C0008CE000238AE0022F51D13300303B092B0F
:1003D00003D803232E75AB60B4E00027AF60412E35
:1003E0000FD1EB68062B00DDACE05A1C5B491133E2
:1003F0009B005958B94200D1A4E06B68EA604360A1
:1004000014E0422E1ED1EB68002B00DA9AE0013B8B
:10041000EB606A68019B991A1BF089F8EB68002B66
:1004200006DB10334D4A9B00995828681BF063F88F
:10043000636822690127D61A22685568ED1A002ED2
:100440004FDC56E0432E05D12B69019A9342AD4112
:100450006D4268E0442E05D12B696A68934271D9D8
:1004600001263DE0482E0CD0462E6BD114E000232F
:10047000032F2DD17E2E23D12A7D312A01D0372A78
:1004800005D10025236962682F009E1A1BE0110028
:10049000FB253439294206D1002723683E005D68D8
:1004A0002369ED1A0FE0332A0AD12169019B002547
:1004B0008B4206D9323A1BF048F80025012701E0AB
:1004C0001D002F002E000023A3609E4209DC0EE0D9
:1004D000042F03D1462EDFD0482ED2D0AB6031E0BE
:1004E0000025300000F050F923699E1B2661002F83
:1004F00019D02368019A5B689A4204D913002269D3
:10050000981A00F051F92268236951689068C91A55
:10051000C01800F015F9236858682369C01A401BF9
:1005200000F032F908E0002D0CDD236829009868FE
:100530002369C01800F004F923695D19256101E001
:10054000370001E001277F42380005B0F0BDC0460A
:10055000B0000020DA60020018140200282E0020EB
:1005600070B50500FFF760FE6B68012B2ED9A968F6
:100570005C1E0A5D0A2A29D1002C03DD621E885CFC
:100580000A2801D1220005E01400F5E7885C202844
:1005900002D101329A42F9D3CB18023B1B78141BCB
:1005A0003A3B59425941A4086418013C0ED30B4E02
:1005B0000422310028001AF0C9FE0421300000F0A6
:1005C000BFF8074A136904331361EEE700F09EF8A1
:1005D000FFF766FE0028F9DB70BDC0464523020028
:1005E000B000002070B506000D00002811DD0029C4
:1005F00006DD154810F018FF0124864213DC11E0D7
:100600000100C020000610F00FFF012485420ADB24
:1006100008E0002909DDC020000610F005FF0124D4
:10062000864200DB0024E4B20BE00024A04208D0A4
:100630000100054810F0F8FE0123854200DB231C71
:10064000DCB2200070BDC046FFFFFF3F10B50F4871
:100650001BF050FB002817D00D481BF01BFB0D4B67
:100660001B68984203D10C4B1A6EDA620CE03F22F1
:100670000A490B8801331340094A1288934203D078
:100680000A88084C0B80A05410BDC0466C2800207E
:10069000AC280020CC000020282E0020762D002041
:1006A000742D0020812D00200022094B10B51A80E6
:1006B000084B094909481A801BF021FB0122084B0D
:1006C000524208481A601AF017FB074B186610BD13
:1006D000762D0020742D00204D0600006C2800208F
:1006E000CC00002058010200282E002010B5040084
:1006F000431C03D0034B186E09F092FD024B1C60A3
:1007000010BDC046282E0020CC00002010B5094B9B
:10071000094A19881288914202D10FF0CFF8F6E702
:100720001A880649885C3F211A8801320A401A80DB
:1007300010BDC046742D0020762D0020812D002094
:1007400070B504004518AC4205D0217802481BF072
:1007500096FA0134F7E770BDAC28002070B50400AC
:100760004518AC420DD02378064E0A2B03D10D213B
:1007700030001BF084FA217830001BF080FA01343D
:10078000EFE770BDAC28002010B50400002C08D0A5
:10079000211E082900D908210248641AFFF7D0FF5A
:1007A000F4E710BD3823020070B505000400002CEA
:1007B00008D0211E082900D908210448641AFFF72F
:1007C000BFFFF4E72800FFF7DFFF70BD4123020001
:1007D0007FB5010068460FF071F9694603A81BF068
:1007E00085FF782203A905481CF02CFC03A81BF008
:1007F00029FF68461BF026FF07B000BD1C2900201A
:1008000070B504000D0010491AF081FF69680122DB
:10081000200005F01DFA0D4E200031001AF077FF80
:10082000A9680122200005F013FA310020001AF017
:100830006EFFE9680122200005F00AFA0449200051
:100840001AF065FF70BDC0464A2302005123020022
:10085000C63C020070B5060010200D0014001AF00E
:10086000D3FE034B466085600360C46070BDC04624
:100870005CE10100F0B5050089B002AF79601600B7
:100880003B600CF04BF9EB683B611023F81818F053
:100890008EFF2A7A6B7AD3189B001818EB68181809
:1008A00014237861F81818F082FF1423B860F81840
:1008B00018F07DFF03235843BB68C0188300FB601A
:1008C0002C2B0AD86B46F8682630C008C0001B1ACB
:1008D0009D46002302ACFB6005E0F86818301AF072
:1008E000A0FE041EEED0BB68EA68636100232360AB
:1008F0007B6929009B1A63603B68200000937A683B
:10090000330004F0BDFE164E002173682000236101
:100910006B68736005F01CFE2369051E736002D0CE
:10092000022803D00AE0A3681E6808E0BB6805330C
:100930009B001E59FB68002B05D109E0094EFB689E
:10094000002B08D0002520001AF094FE002D02D0C4
:1009500030000DF028FD3000BD4607B0F0BDC046A8
:10096000282E0020A8F40100F0B585B00700029100
:1009700003921E001D1E00D05D680A9A531E9A4104
:10098000A8180430800001921AF03EFE194B3A007C
:100990000360194BC17A5B68040043606B461B7AA5
:1009A00003726B461B7B8572437201231A40500011
:1009B000019A99431143DF4002223B409143934007
:1009C0000A00042102438A431A43E2720B9BE3604C
:1009D000002E06D031002000AA00083110301DF092
:1009E000C6F80A9B002B02D00435AD002B51200025
:1009F00005B0F0BDD4E10100282E0020002310B581
:100A00000400080086B0019307330093102260337E
:100A100002A9406803F0D4FA02A920001AF077FE78
:100A20002E2102A81DF00EFA00280FD1652102A880
:100A30001DF008FA002809D16E2102A81DF002FA63
:100A4000002803D1024920001AF061FE06B010BD53
:100A5000785E020010B5041C08201AF0D5FD024B88
:100A60004460036010BDC04610E2010010B50A00EA
:100A70000B00032814D004280BD0002300280FD12A
:100A80000021506810F03EFD064B002808D0064BB0
:100A900006E0802348681B06C018FFF7DBFF030051
:100AA000180010BD9CF80100E0F8010030B50C0002
:100AB0001100002285B020001D00009201230CF0DF
:100AC000ADFB0020002C19D0032328680340022B23
:100AD00005D0002B10D103680A4A934209D103A91B
:100AE00007F0E8FA00220399009213000BF0C8FA0D
:100AF00006E0054A934203D005F0DCF9FFF7AAFFB0
:100B000005B030BD54EC010010E20100F0B5050065
:100B100087B01000019105F0CDF9041C0390681F07
:100B2000182800D9A9E010F013FC0D10161B2C3763
:100B30006A6FA8A8A8A8A80D10161B2C376A868B68
:100B400090959A00211C019856E0211C019811F003
:100B50007FF801908CE0211C019810F08DFFF8E7E0
:100B60000021201C10F0CEFC002805D04549464845
:100B70001AF0CFF80DF017FC03A901A816F0F1FB4D
:100B800076E00021201C10F0BDFC0028EED1211CD5
:100B9000019810F091FEDCE70021201C10F0B2FC5F
:100BA0000028E3D1211C019812F03EFD0021041C15
:100BB000019010F0A7FC002807D0039A0023002A18
:100BC00001DA80231B06019352E00021201C039EC2
:100BD000012710F09DFC002800D1071C0021301CCB
:100BE000012510F095FC002800D1051CFFB2EDB2E4
:100BF000AF423DD0311C201C10F0EEFCA9E7211CB7
:100C0000019812F073FDA4E70021201C10F07AFC7B
:100C10000028ABD103A901A816F0A3FB0198FFF7A8
:100C200019FF04900398FFF715FF04A9059002200F
:100C300009F0F4F81FE00199201C10F07DFC12E08F
:100C40000199201C10F064FC0DE00199201C10F0AB
:100C500059FC08E00199201C10F078FC03E0019990
:100C6000201C10F05FFC094B002807D1084B05E061
:100C70000198FFF7EFFE030000E00023180007B023
:100C8000F0BDC04654230200FC0502009CF80100A0
:100C9000E0F8010010B5034B9222896816F0E1FBE1
:100CA00010BDC0464D1F000010B5034B3F228968A0
:100CB00016F0D7FB10BDC046F7800100F7B50C1E3B
:100CC0000090019200D1C3E003260E4000D0BFE0A7
:100CD0004D68EBB2AA3B022B00D8B9E00F002D0AF9
:100CE0000837AE4207DA3968019A0098FFF7E6FF45
:100CF000013601C7F5E720796B38122800D9A7E043
:100D000010F026FB13A6212EA64FA665A6A694A634
:100D1000A6A6A6A6A6A60A00012D00D098E0A36864
:100D20002B4200D194E01C0092E0022D00D08FE015
:100D30000120A368034200D18AE0E168014200D1AA
:100D400086E019430AE0022D00D081E00120A3686B
:100D500003427DD0E16801427AD01940014174E03C
:100D6000032D75D10120A168014271D0236903428E
:100D70006ED0384AE5680141034195420CD11F2BE2
:100D800066DC354A1A41914262DCC02212061A41E1
:100D900091425DDB994058E01F2B00DD1F23194174
:100DA00013E0032D54D10121A2680A4250D02369D7
:100DB0000B424DD00A410B412848E568D11A8542C3
:100DC00000D1D1184B004B4042D401203DE0032D0F
:100DD0003ED10127A6683E423AD025693D4237D030
:100DE000E3681F4A3E413D4193420BD12900300048
:100DF000FFF7F8FB00282BD1290071434B004B4033
:100E000012D525E0174A934222D0174A934204D1C3
:100E10002900300016F02EFA05E0002D18D0290028
:100E2000300016F037FA010038000EE00120E168CA
:100E300001420DD0A368094A0141934205D00B4AF3
:100E4000934201D1494200E0C94318F05CF8040024
:100E50002000FEBD7E030000FFFFFF3FFE020000FA
:100E60001E0300003E0300005E0300000E030000AE
:100E700010B54379012B03D1406A16F0A1F905E0C2
:100E80000B00426A0249806A16F0D6F910BDC046CE
:100E900048E8010010B54379012B03D1406A16F0F0
:100EA000AFF905E00B00426A0249806A16F0C4F906
:100EB00010BDC04638E8010010B54379012B03D1BD
:100EC000406A16F09DF905E00B00426A0249806A0B
:100ED00016F0B2F910BDC04658E80100F7B50E0093
:100EE000417904001300012903D1320016F0F1FA10
:100EF000B0610025A38AE7790093E38AE571019345
:100F00002000134BA582E5820C22F16816F0A9FAA5
:100F1000A3682800AB421AD1E18AA94208D0A38A6B
:100F2000AB4205D1A06A17F078FEA06A17F0D8FC92
:100F3000B569A38A2000E28A290016F0EEFA6B4612
:100F40001B88E771A3826B469B886869E382FEBDBC
:100F500039210000836870B504000D00002B09D111
:100F60001100054819F0D5FEA060200029000C30C2
:100F700016F03AFB70BDC0460807020010B5024AE1
:100F8000FFF7E8FF10BDC04665230200F0B500245E
:100F90000F0026004B688BB01B0A0190039302944C
:100FA000039B9C4223DAA300FB1898680323184292
:100FB00006D00F250540000918F030FA361808E071
:100FC000FF22436806251340AA2B00D00435C368CE
:100FD000F618002C08D0029BAB4205D0214A3900FC
:100FE0000198FFF7B7FF3BE001340295D8E7019B7A
:100FF0005B79042B03D0019B1B49986A2EE03100DA
:10100000002606A81AF0F9F9089D039B9E4219DAFA
:10101000B300FB189C6803231C420AD005A92009D1
:1010200018F006FA059A010028001CF0A0FD059BA7
:1010300005E0E268A16828001CF099FDE368ED185E
:101040000136E2E7019B09489C6A029B062B00D00F
:10105000074806A906F044FE0100200017F034FC02
:101060000BB0F0BD82230200A8F4010054EC010093
:1010700074FB010010B5438B0400002B02D1054A1C
:10108000FFF768FFA38BE28B618B9A1AA06A01F0CD
:101090006FFC10BDA923020010B5038B0400002BC8
:1010A00002D1054AFFF756FFA38BE28B218B9A1AD8
:1010B000A06A01F05DFC10BDC1230200F7B50D0070
:1010C00004000F2128000840022801D1290904E06A
:1010D000287990420ED1AB681909E279636A002A37
:1010E00004D1DA8B0132DA83012624E01A8C013232
:1010F0001A84F9E7984216D10122E271AB68002BFD
:101100002DD01940636A022905D1197F0A431A7745
:10111000AB68190905E0197F0A431A77AB6899682B
:101120000909032607E002200526AB68626A19094F
:10113000137F03431377002911D06B46DF1D3A005C
:10114000606A17F083F93B78002B05D1044A290027
:101150002000FFF7FFFE02E0022346700370F7BD98
:10116000D623020010B542790B00042A02D00649AA
:10117000806A06E0846AC968986806F061FF010029
:10118000200017F0A1FB10BDA8F4010037B5050041
:101190000C1E47D0CB0704D54910806A17F043FBDB
:1011A00040E08B072BD008090F210C40062C08D0FB
:1011B0000A2C0BD0022C1BD101002800FFF758FE8F
:1011C00030E00100A86A17F073FB2BE06B79042B69
:1011D00002D01549A86A08E001A918F029F9019977
:1011E000AC6A06F02DFF0100200017F06DFB19E03E
:1011F000052817D0C1B2A86A01F09CFB12E009686B
:10120000806A01F04DFB2379084A9B009B58002B14
:1012100005D1074A21002800FFF79CFE02E02100CB
:101220002800984737BDC046A8F4010034E3010008
:10123000EF230200F7B50D00040016000327FF217D
:101240003D4211D00F232B40022B0BD12909200046
:10125000002E01D0022E02D1FFF71CFEC7E0FFF7DF
:1012600007FEC4E0624ABEE06A6813000B407D2BB3
:1012700072D004D8252B69D0772B05D0B0E07F2B16
:1012800079D0922B62D0ABE0022E03D0A968200067
:10129000FFF77CFFEB680093002B00D1A0E0032751
:1012A000009B3B4000D09BE0009F7A68D1B2782938
:1012B00017D1120A01921F00022E05D1019B009A3C
:1012C00001339B009F580CE0019B013B9F42F5DAE4
:1012D000009ABB00D31899682000FFF757FF013729
:1012E000F2E73B79882B16D1022E04D1A06A17F0C1
:1012F000AAFBA06A0CE02000B968FFF747FFA06ACC
:10130000012E05D117F045FBA06A17F015FB19E077
:1013100017F02AFB16E0892B62D1012E08D1A06AB2
:1013200017F02DFBB968A06A090917F0E3FA09E084
:10133000022E02D1A06A17F041FBB968A06A090920
:1013400017F005FB2B69002B4AD150E0002E49D144
:101350002B00120A083315E0AB68002B40D03B424B
:1013600001D01D006CE75A6818000A40812AF8D1A4
:10137000002E37D114E0002E34D1A968002903D102
:1013800033003200310027E00323194205D14A68B7
:10139000FC3308001340812B02D000231A001BE00D
:1013A000C368002B14D003221A4011D15E68FF21BC
:1013B00037000F40842F01D1130003E0852F03D1A4
:1013C0000833320A816807E043681940A42907D02E
:1013D0000300022200210833200000F00FF806E08D
:1013E000044A00E0044A29002000FFF7B3FDF7BDDE
:1013F000072402001F2402003A240200F0B587B03F
:1014000004920A001F00531E9A4106000D1E059209
:101410000BD003240C4008D10B796A2B05D1049A18
:101420002100806A17F05DFC01E001246442049B06
:101430000397013B0293059B0193029B013322D04A
:10144000039B1968002915D00323194212D1FF22EA
:101450004B6813406A2B0DD1631C06D1029A019987
:10146000B06A17F03EFC019C04E01E4A3000FFF712
:1014700071FD35E0039B04330393029B013B029310
:10148000019B0133D8E7059A049B9446634401937A
:10149000631C06D10199B06A17F017FC002D0BD11F
:1014A00008E0002D06D0002C06D12200A9683000EB
:1014B000FFF7C0FE059D0CE000222900F7E7AC42D3
:1014C0000BD100223B6899683000FFF7B3FE043768
:1014D0000135019B9D42F2D102E000223968F3E719
:1014E00007B0F0BD66240200F0B504000E00012331
:1014F000627111000361466287B03200806A01F0B8
:1015000019F96379012B02D10023B384F384F568C0
:10151000002D09D0AB0707D12B79042B04D1A96882
:101520002000FFF733FEB4E03378002B04D129000C
:101530002000FFF72BFEA2E06779012B14D1012FC9
:1015400007D10023E3710C22564BE968200015F007
:1015500088FF20006969FFF719FEA06A17F026F9D5
:10156000002800D098E08AE0022B15D1012F07D186
:101570000023E37114224C4BA968200015F071FF81
:10158000E9682000FFF702FE337F5B0700D480E0AC
:10159000A06A17F008FA72E0033B032B48D8EB6807
:1015A0000393012F09D10F2202ABD2183900606AD0
:1015B00016F04CFF02230370F7833378032B04D11A
:1015C0000021A06A17F036FB05E0042B03D10021AF
:1015D000A06A17F049FB27690121BB1C2361200089
:1015E000FFF746FC791CA06A17F0E9F83900A06AF9
:1015F00017F0B0FA039B002299682000FFF71AFE4B
:10160000002303990093AA687B1C0969200016F047
:1016100079F8791CA06A17F02BFA3900A06A17F044
:10162000CEF8A06A17F0A2FA3378062B31D126E063
:10163000012F08D10F2202ABD2180421300016F07E
:1016400005FF022303700C212000FFF711FC0B2182
:101650002000FFF71FFCAB68A06A190917F028F9F2
:101660000F212000FFF716FC29692000FFF78EFDEF
:101670000421300016F0DAFE0378022B04D10F218A
:10168000A06A01F057F904E042880421A06A17F02B
:1016900027F8A06A17F077FBA06A01F0C3F807B03B
:1016A000F0BDC04609760100FD750100F0B589B0B6
:1016B00004000D00059104921E00002921D18379B8
:1016C000002B1ED0436A1F78012F1AD10421FFF787
:1016D000CFFB626A518D8D4210DAD06AEB00C318DD
:1016E0005878384208D05A880121A06A16F0F8FFCD
:1016F000002302211A006FE00135ECE7394A00218E
:1017000028E007AA9C2105A817F08BFC0023039072
:1017100002931D00019307E0896820001D43FFF735
:1017200035FD029B01330293029B039A934246DAF2
:10173000029B079A9B009958002936D0032319422F
:1017400033D1FF224B6813409E2B07D19D3B1D4296
:10175000E2D0254A2000FFF7FDFB40E09F2B04D19B
:101760009D3B1D42D8D0214AF4E7A02B1DD1FF227A
:10177000CF687B681340A22B12D18B68F03A1A40D5
:10178000022A01D01A4AE5E71909A06A17F090F871
:10179000B9682000FFF7FAFC019B01330193C0E711
:1017A0000622200016F0A1F807E0019B002B01D0D3
:1017B000104ACFE72000FFF7E9FC0136B1E7049BB0
:1017C000002B06D02B00019A3100A06A17F0D1FA45
:1017D00005E02B003100019AA06A17F0C1FA09B0A8
:1017E000F0BDC046802402009E240200B524020001
:1017F000CD240200EE240200F0B58D6887B004000D
:10180000002D04D12900806A17F02EFA57E0032733
:101810002F4054D1FF266B683340962B0BD101210A
:10182000806A17F021FA20002900FFF7AFFCA06AB8
:1018300017F026FA43E0952B41D1E868436833401E
:10184000982B37D105AA9921083017F0EAFB411CE3
:101850000190A06A17F008FAA9682000FFF796FC2B
:10186000A06A17F00DFA032303960293019B9F428F
:1018700025DA059ABB00995800231E00994209D029
:10188000029B194206D1039B4E681E40963E72424F
:10189000724116002000FFF779FC002E05D1094A9D
:1018A00029002000FFF756FB09E0A06A17F0E8F9CD
:1018B0000137DBE704222900200016F016F807B0F4
:1018C000F0BDC04610250200F8B54B680C008968D1
:1018D00005001F0A0226FFF759FC0C34B74217DD3A
:1018E00061682800FFF752FC23680A4A07219342E7
:1018F00008D0094A0821934204D0084A092193429A
:1019000000D00A21A86A17F066F902360834E5E724
:10191000F8BDC0461E0300004E0300003E03000059
:10192000F8B54B680C00896805001F0A0226FFF70E
:101930002DFC0C34B7420FDD61682800FFF726FC50
:10194000064B226805219A4200D00621A86A17F0AA
:1019500042F902360834EDE7F8BDC046FE02000049
:10196000F8B54B680C00896805001F0A0226FFF7CE
:101970000DFC0C34B7420FDD61682800FFF706FC50
:10198000064B226803219A4200D00421A86A17F06E
:1019900022F902360834EDE7F8BDC0467E030000A8
:1019A000F0B504000F208B688DB00D000340022BB2
:1019B00042D1CB68002B3FD0032633423CD1FF21DC
:1019C0005A680A40772A37D19A681040022833D1E2
:1019D0001209842A30D1DA68002A2DD032422BD164
:1019E00050680140872927D11B69002B24D19368B7
:1019F00015310BAA0AA80A9317F013FB431E060021
:101A0000022B19D8012808D1002117F07CFA0B9B72
:101A100001901F683100300007E00B9B1A685F6877
:101A20000192022805D10121080017F06CFA060086
:101A300052E09E68F3074FD4238B26690193638B92
:101A4000771C0293E38B20000393A38B6783E383CC
:101A5000624B33432383F31C0493331D2361E968F2
:101A6000FFF794FBA06A17F06BF83900A06A16F034
:101A7000A6FEB11CA06A17F06DF80022A96820002C
:101A8000FFF7D8FB20002969FFF780FBA06A16F05A
:101A90008DFE002803D13900A06A16F0E9FFB11CC1
:101AA000A06A16F08CFEA06A17F060F86B469B885F
:101AB000696923836B461B89200063836B469B897E
:101AC000E383FFF763FB3100A06A16F078FE049908
:101AD000A06A16F074FE7EE0AB6803932B69049352
:101AE0006B6925690593238B25830693638B079385
:101AF000E38B08936B1C0293AB1C09936B461B8909
:101B00006383A38BE3832B1D236101233B4002935B
:101B100003D139002000FFF739FB01992000FFF7BE
:101B200035FBE91CA06A16F0A3FFA91CA06A16F0F9
:101B300046FEA06A16F023FF002203992000FFF75B
:101B400079FB04992000FFF721FB691CA06A16F0BD
:101B500036FE31002000FFF719FB1221A06A17F0B2
:101B60003AF8A06AE91C16F02AFE029BA06A002B34
:101B700005D116F00EFFA06A16F020FF05E016F062
:101B8000FEFE39002000FFF701FB1921002E00DACC
:101B90001A21A06A17F01FF8AA1C0121A06A16F0EA
:101BA00073FF6B461B8B059923836B469B8B200031
:101BB00063836B461B8CE383FFF7E8FA2900A06A76
:101BC00016F0FDFDA06A16F0EEFE029B002B02D17E
:101BD000A06A16F0E8FE0DB0F0BDC0460080FFFF21
:101BE000F8B5CE6804000D00002E29D10379002B32
:101BF00011D0436A1E78002E0DD11121FFF738F95C
:101C0000A9682000FFF7C2FA330032000121A06A60
:101C100017F0A6F810E0A9688B0704D00F230B403B
:101C2000022B54D105E0002903D00B79AA3B022BEB
:101C30004DD92000FFF7AAFAA06A16F0B4FE46E0DC
:101C40007368DAB2212A14D1203A8968FFF7F2FAD0
:101C5000F1682000FFF79AFAB36818211B094E3B80
:101C60000A2B01D81A4AD15CA06A16F0B4FF0222EE
:101C700029E0222A23D11B0A5F1E01339B009B59B6
:101C80009968FFF783FA002F02DDA06A16F077FE4D
:101C9000A96800222000FFF7CDFA0025BD4216DA20
:101CA0000135AF4202DDA06A16F069FEAB00F31801
:101CB0005B68002299682000FFF7BCFAEEE7B16884
:101CC000FFF764FA0022A9682000FFF7B3FAF8BD15
:101CD000442602004B68F7B50D0089681E0A04000F
:101CE000FFF754FA00230193032E03D923690193CC
:101CF0000133236101270C357B1C9E4230DD69686E
:101D000020000237FFF742FABE4205DDA06A16F056
:101D100036FEA06A16F097FE0F222B681A400E2A94
:101D200007D11B09363B1F210B2B0DD81A4AD15C5A
:101D30000AE0FF215A680A40DD39672A04D09B680F
:101D40002021002B00D02321A06A16F044FFBE42C0
:101D500004DD019A0021A06A16F0A7FE0835CBE742
:101D6000032E18DD2569A06A6B1C2361290016F07B
:101D70007FFE0199A06A16F022FD0121A06A16F0EB
:101D80001AFDA06A16F01AFEA06A16F00CFE2900D1
:101D9000A06A16F014FDF7BD4F260200F0B504004E
:101DA0000F001E00056987B06B1C0593AB1C036117
:101DB0002900806A049216F0A0FE200015F047FB6F
:101DC00039002000FFF7E2F9A06A16F0D5FE691C81
:101DD000A06A16F04DFE2900A06A16F0F0FCA06A79
:101DE00017F00BF8236937000293013323610023B6
:101DF0000093009B049A934200DB8DE03B680393C1
:101E00002369019301332361039B9E68002E0DD14A
:101E1000009B049A01339A4226D04B4A396820002D
:101E2000FFF798F8A38B013BA3838AE003230025E7
:101E30001E4208D1FF21736832000B40502B02D1A3
:101E4000D568B6682D09A06A16F099FD310020000A
:101E5000FFF79CF9A06A212116F0BDFE019A00212E
:101E6000A06A16F011FE00E03500A06A16F09BFD96
:101E7000002D03D1A06A16F096FD03E02900200092
:101E8000FFF708F80026A06A16F08DFDB54209D0CC
:101E90002669A06A731C2361310016F03AFE200007
:101EA00015F0D5FA039B2000D968FFF76FF9002DD4
:101EB00002D0A06A16F060FEA06A16F067FE002D40
:101EC00019D00F21A06A00F035FD3100A06A16F08C
:101ED00076FC0F21A06A00F02DFD29002000FEF7FE
:101EE000D9FF20002900FEF7E7FFA38BA06A013B82
:101EF000A38316F01AFE0299A06A16F0B9FD0199A3
:101F0000A06A16F05CFC0321A06A16F054FC009B4A
:101F10000437013300936CE7A38BA06A013BA383D2
:101F200016F003FEA06A16F06CFF0599A06A16F081
:101F300046FC0C992000FFF729F90299A06A16F0D7
:101F40003EFC07B0F0BDC04633250200F7B50500E2
:101F50000C0003270F232340022B04D12109280062
:101F6000FEF7AAFF73E0002C6CD03C426AD1FF263A
:101F700063683340772B37D1A1682800FFF706F953
:101F8000E768002F5ED003223A405BD179683B00BE
:101F90000E40782E12D116000B0A0193019B013BD3
:101FA0009E4207DAB300FB1899682800FFF7EEF8A5
:101FB0000136F3E7019B01339B00DB591A79882A2C
:101FC00007D128009968FFF7E1F8A86A16F045FDE7
:101FD00006E0892A36D19968A86A090916F0F8FC42
:101FE0002369002B2ED132E07D2B2BD1A468002C4D
:101FF00028D03C42AED163681E40812EAAD1E6684B
:10200000002E19D03E4217D17368DAB2842A01D16A
:10201000A4689FE7852A0FD1A16828001F0A002421
:10202000FFF794FFBC4212DAA300F3189968280066
:10203000FFF78CFF0134F5E7A1682800FFF786FF62
:10204000E46887E7024A21002800FEF783FFF7BD16
:1020500052250200F0B50400080089B0059108304F
:1020600006AA072116F0DDFF0027636A03905B7F55
:1020700001970293039B9F4219DA069ABB009E5870
:102080004021300007AA083016F0CBFF079B0490D0
:1020900019680A09282A32D1022803D159680B0984
:1020A000292B25D0234A2000FEF754FF22E0059B70
:1020B000029AD96820000B790A2B02D1FEF70EFF95
:1020C00001E015F0E4FC06000025039B019A9B1A31
:1020D0009D4207DA002301211A00A06A16F040FE93
:1020E0000135F2E731002000FEF7D4FE09B0F0BD63
:1020F00001230293019B013301930137BAE72000CA
:10210000FFF744F80125049B9D4208DA079AAB00CB
:102110009958A06A090916F0EDFB0135F3E7F36859
:10212000002BEAD00023A371F1682000FFF72EF8FE
:10213000E3E7C0466A25020070B50400002909D013
:102140008B0707D10B790F2B02D10E3BC3713CE0FB
:10215000102B3AD00F23E2790B40022B02D00D69ED
:10216000002D09D1002A30D1E38A002B2DD0174A47
:102170002000FEF7EFFE28E0002A1FD0A38A8E6819
:1021800001339BB2A382012B0CD1E18AA06A002902
:1021900002D016F042FD01E016F0A2FB0021A06A79
:1021A00016F062FD29002000FEF7F0FFA06A310959
:1021B00016F07EFBA06A16F063FD06E0E38A2900B4
:1021C0000133E3822000FEF7E1FF70BD88250200A5
:1021D000F8B5436A04001B78012B03D0174AFEF7B9
:1021E000B9FE29E08D68002D04D10F21806A00F02E
:1021F000A1FB1EE003222A4017D12B795C2B14D1BE
:102200000669EF68731C0361B968330015F002FAC0
:10221000A9682000FEF7BAFFA06A16F0B4FD3100ED
:10222000A06A16F0CCFAF96800E029002000FEF759
:10223000ADFFA06A16F0A7FDF8BDC046B6250200A6
:1022400010B542790B00042A02D00749806A07E0E2
:10225000846AC9680022986805F09AFE010020008F
:1022600016F032FB10BDC046A8F4010010B5436A59
:1022700004001B78013B012B03D9134AFEF76AFEC9
:1022800020E08968002904D10F31806A00F052FBF8
:1022900015E08B0710D10B79A82B0DD18968FEF7BB
:1022A00075FFA06A16F04CFCA06A0F2100F042FBFB
:1022B000A06A16F092FD05E02000FEF767FFA06A15
:1022C00016F07CFD10BDC046D025020070B50D0093
:1022D000C9680400FEF75AFFAB68064A032193421F
:1022E00004D0054A0421934200D00521A06A16F0CB
:1022F00057FC70BDFE0200000E030000F0B54379EC
:1023000085B004000E00012B3BD1436A1B78002BE3
:1023100003D11D4AFEF71EFE33E0300003AA43211D
:10232000083016F07EFE00270090009BBB4228DD9F
:10233000039ABB009D5802AB2D09DA1C2900606A84
:1023400016F084F802ABDB780190104A002B0AD01B
:102350002900606A16F0A7F8002803D00378023B32
:10236000022B05D90A4A31002000FEF7F3FD06E0F2
:102370000422019B29001A70606A16F0A7F8013741
:10238000D3E705B0F0BDC046E92502000E260200E5
:1023900026260200F0B587B0019146790500012E8E
:1023A0002DD1019805AA4321083016F03AFE0024E9
:1023B00003900296039BA34221DD059AA3009E5839
:1023C00004ABDF1C36093A003100686A16F03EF8AB
:1023D0003B78002B05D10B4A01992800FEF7BAFD86
:1023E0000BE06B461B7A31000370686A16F052F8F6
:1023F000002802D06B461B7A03700134DAE707B07D
:10240000F0BDC0460E2602000F23F0B58D6885B0E2
:1024100004000E002B400E2B06D0002D21D0AB0760
:102420001FD12B79392B02D10295002504E0362BE0
:1024300017D1AB680293ED6803AA392102A816F000
:10244000F0FD00231900039A83420BDA9F00D7594D
:10245000BC462F4FBC4501D1013100E003310133AF
:10246000F2E700212B4BF268A06A9A4213D116F0D2
:10247000DAF9A06A022116F01BFAA06A012116F00F
:10248000CCFB200003AA2830290015F0C1FDA06A6A
:1024900016F0BEF93AE016F0C6F9300002AA0C3088
:1024A0003E2116F0BEFD00270600B74209DA029A67
:1024B000BB009B58A06A99680137090916F0F8F922
:1024C000F3E73100A06A16F0A8FB2000290003AA58
:1024D000283015F09DFD0025B54214DA029AAB00B4
:1024E0009F58A06ABB681B091900019316F084F974
:1024F000F968002901D1019900E009092000FEF7DF
:10250000C9FC0135E8E7A06A16F04DFA05B0F0BD48
:10251000AE0400001E03000010B504000AF0E2FA49
:10252000074B0200DB6F0749074819F0BDF902F0BD
:10253000C3FE012C01D102F0DFFE044810BDC046ED
:10254000282E00205B26020018140200A8F40100C7
:1025500010B586B0040005AB04AA03A902A801F0D7
:10256000C9FC059B029A0193049B06490093064807
:10257000039B19F099F9012C01D101F0FFFC0348EC
:1025800006B010BD7026020018140200A8F4010065
:1025900010B54A68014919F087F910BDB826020044
:1025A000F8B5022583001D430700012229000C48CD
:1025B00004F086FE06004068002810D10C3019F0A7
:1025C00023F8084B040003604760012017F013FD57
:1025D0002A00A060322117F047FD20007460F8BD8A
:1025E000482E002034E6010010B50321014817F001
:1025F000AFF910BD482E002010B5024817F0C7F9FA
:1026000010BDC046482E002010B50C0002218000ED
:1026100001430122024804F053FE446010BDC0464D
:10262000482E002073B5022583001D4306000022BA
:1026300029000F4804F044FE041E17D102002900AF
:102640000C4804F03DFE041E11D06A460721406884
:1026500007F0E6FF009B002B08D000216A46080027
:1026600018F0BCFB61683000FFF7CEFF606876BDF4
:10267000482E002070E6010010B54468080003F001
:10268000B5FB010020001AF035FD014810BDC04621
:10269000A8F4010010B54468080003F0A7FB01008E
:1026A00020000DF06FFE014810BDC046A8F40100E7
:1026B00010B54468080003F099FB010020001AF0EF
:1026C000B6FD014810BDC046A8F4010010B5406831
:1026D0001AF085FD024B002800D1024B180010BDF6
:1026E0009CF80100E0F8010070B51500040015F039
:1026F00083FF2A000249200015F033FF70BDC04659
:10270000D985010070B503780D000024032B06D98C
:10271000436A074C9200E41A8369D358E4180321F2
:1027200015F05AFF447024120570847070BDC046C5
:10273000FD7F0000F8B50023040021704360437062
:10274000A260C36001330F0015000361032906D89E
:102750000121436949429A0080691BF026FA00234F
:102760002E4E6362E361042F04D1226A31002000FF
:1027700015F0F7FE6A693100200015F0F2FE2A69B3
:102780003100200015F0EDFE0027EA8B2B8CD318CA
:102790009F421CDA0022698D8A420DDA0126E86A1E
:1027A000D300C3185878304204D05888874201D1EA
:1027B0005E6802E00132EFE702260421200015F0F6
:1027C0000BFF0223B6001E4306600137DDE76A8C6B
:1027D000AB8CD3180122002B00D01A00104E200021
:1027E000310015F0BEFE3100EA8C200015F0B9FE74
:1027F00000266B8D9E420BDAEA6AF300D3181A7832
:10280000032A03D19978200015F0F6FE0136F0E78F
:10281000FF21200015F0F0FEF8BDC046BF85010085
:10282000D985010037B503780400012B30D0426808
:10283000002A03D01749184819F036F80121200062
:1028400015F0BDFE002303702578032D11D1E26938
:1028500012490832200015F084FEE369D81C636A2F
:10286000A843E0612062A362181818F0DFFEE0625E
:102870000EE0042D0CD1A068A16A226AC38B521805
:10288000017F0191018C00918069E16A06F0ECFA08
:1028900037BDC046C626020018140200BF850100DD
:1028A000F7B5224B06000433DB6F0191022B3BD8B6
:1028B00004698C4238D2436AC2680C1B9D1A2300FB
:1028C0002B432DD00095062C10D81F2D01D91F2386
:1028D0000093271E032F00D903270121300015F094
:1028E0006EFE009A7B011343037015E00F2D01D992
:1028F0000F2300930E4B271E9F4200D91F00022179
:10290000300015F05CFE70223B0900991340F03A4C
:102910000A43134303704770009BE41BED1ACEE794
:10292000736AF360019B3361F7BDC046282E002017
:10293000FF07000070B50D000121040015F031FE05
:102940000F2D05D0102D05D010210E2D07D102E03E
:10295000112100E01221200015F04EFE04E0034A90
:102960001721200015F0FCFE70BDC04618E10100E3
:10297000F8B506000D00141E124F11D1110015F00C
:1029800010FE80231B021D4203D03221300015F0BF
:1029900033FE2A0035213A403000FFF7B3FE0FE046
:1029A0003A000A404621FFF7ADFE80231B021D407E
:1029B0006A1E9541ED012C43E1B2300015F01CFE7A
:1029C000F8BDC046FF7FFFFF02000378002083426E
:1029D00006D1044853691B18591A93698900C858CD
:1029E0007047C046FFFFFF3F10B5054AC46909059F
:1029F000890C8A580023A16B16F059FA10BDC04605
:102A000068E8010070B5051E24D00324044021D1DC
:102A10004668F3B21A00AA3A012A03D8806818F06F
:102A200029FE14E0AC2B12D00B4A9B009B58360AAF
:102A30005A787F2393429B415B42F61AB44206D0F8
:102A4000A300EB189868FFF7DDFF0134F6E72800D4
:102A500018F010FE70BDC04668E80100F0B5002413
:102A60008FB0009006AB80201C7040238000049142
:102A70000793089418F0D5FD2023099080200A932D
:102A80000B9418F0CEFD009B0C900D93099B0193C5
:102A9000A34202D1B949BA48BFE10028FAD0049B49
:102AA0001A1E03D00423022A00D0033BB5499A0022
:102AB000525800990023896B06A816F0F8F90024F3
:102AC000089B002B00D175E106AA1178002900D0DF
:102AD00070E1099A013B0893DB000192D318DA7880
:102AE0005D681B68A74892001B0217581B0A0193D8
:102AF0007B7803930F23039A1340029330231340F0
:102B0000202B3AD0302B00D1F5E0102BD8D1002D5E
:102B100001D0002CD3D080216A00BA184901029B51
:102B2000AB4228D95388180B000388420ED1009875
:102B30001B054030007802321B0D984216D106A8C2
:102B400016F0E8F9009816F016FCB8E7029A6B1C2C
:102B50009A4204D93A00019906A816F0A8F96D0026
:102B60007D19698806A8FFF73FFFA8E70135D6E77A
:102B7000012D00D944E10124A2E7002C07D06B000D
:102B8000DB5B1B0B032BF3D106A816F04AF980265A
:102B90006C003C19760114E063881A0B1203B242F0
:102BA00016D1009ADBB2403212789A420DD1082A2F
:102BB00002D106A816F0AEF9009816F0DCFB01353C
:102BC0000234029BAB42E7D804E0002DD3D017E1DA
:102BD0006B1CBFE7002580212A002C004901029BC5
:102BE0009A4212D25300FB185B88180B00038842EC
:102BF00008D1DBB2072B06D9083B584243410124D8
:102C0000ED1800E001350132E9E7049B002B24D0E8
:102C10003B781F2B21D1002106A8FFF7D5FE002805
:102C20001BD1012106A8FFF7CFFE830704D00F2395
:102C30001840022806D110E000280ED04368DBB20D
:102C4000AA2B0AD106A816F0E0F806A816F0DDF8BF
:102C5000FFF7D8FE00234C4AA7E03B781F2B01D09A
:102C60002E2B00D1012440237A78134059424B4146
:102C700052B25B421C40002A05DA002106A816F079
:102C8000D0F80124013500260296AE420AD0310068
:102C900006A8FFF799FE431E9841029B01361B18B8
:102CA0000293F2E7002C01D033007DE0029B002B61
:102CB00007D133003A00019906A816F0D2F8029C19
:102CC000FEE6029B012B0FD12600AC4207D006A8DE
:102CD00016F09BF8002800D006000134F5E731001B
:102CE00006A816F09EF8EAE633003A00019906A815
:102CF00016F0B7F8E4E6002C20D10123039A1A401D
:102D0000059208E0002A02D106A816F003F90098FF
:102D100016F031FB01358021059A49012A40530004
:102D2000FB185E88330B1B038B421BD1009B3605BF
:102D300040331B78360DB342E4D00135029B022BA1
:102D400004D1012D00D116E700221FE0012D00D192
:102D500011E701232A001A4018D0029A032A4FD102
:102D60001A0013E0019906A86B1C3A0016F09FF8B0
:102D7000310006A8FFF738FEA2E6C046F2260200A0
:102D80002002020068E801002623020003996B1E5E
:102D9000C90704D5B988090B012900D16B08012B9B
:102DA00002D1002A00D18AE63A00019906A816F05D
:102DB00058F884E606AB1B78002B00D06AE6009B2F
:102DC00040331C78002C1BD10B9B0193002B17D098
:102DD0000C9B1D68099818F04DFC0C9818F04AFCE3
:102DE000002C1FD0009A00990023926B09682000E4
:102DF00007F024FA009816F04DFA20000BF0D3FAF1
:102E0000009B0B4940331B78062B02D0022B02D1CA
:102E10000849094801E00949094817F07AFF0025E7
:102E20000400D7E7009816F035FA28000FB0F0BD7F
:102E30001A2702002C2702008405020060270200E6
:102E40000807020010B50400082018F0DDFB024B53
:102E50004460036010BDC0460CEB010010B51020AB
:102E600018F0D2FB0400034B08C017F018FA20003A
:102E700010BDC046D409020070B50D00052826D843
:102E80000EF066FA05250D03141C080020E0081D4D
:102E900017F037FB031E0F481AD00F4818E0081D23
:102EA00017F0E7FD01214000084311E0FFF7D6FFCE
:102EB000291D0400043017F051FB06E0FFF7CEFF98
:102EC000291D0400043017F059FB200000E0002009
:102ED00070BDC0469CF80100E0F8010070B5050027
:102EE00083070CD1104B02689A4208D1FFF7B6FF56
:102EF0000400291D043017F026FB200012E02800F2
:102F000002F074FFC0231B06984205D180200021E7
:102F1000C00516F026F905E0C317C0185840012374
:102F20004000184370BDC046D409020070B5051CAE
:102F300010F030FB012802D10F49104803E00028AF
:102F400005D10F490F4807F00BF90BF02CFA281C9C
:102F500017F0A0FF002806D1281C0EF0F1FF012475
:102F60004000204307E0FFF779FF0400291C0430EC
:102F700017F014FA200070BD6F270200CC06020083
:102F800088270200A001020007B5C30701D5401041
:102F90000DE0043001A906F09DFE002801D0019843
:102FA00005E00349034817F0B4FE0BF0FCF90EBD31
:102FB000A1270200CC060200F0B5060001208FB068
:102FC0000D000192084007D04B10032203A905A869
:102FD00017F0A4F905AC09E003230B4000D013E17E
:102FE0008A4A0968914200D00BE12C1D019BDB0746
:102FF00008D5019B03225B1003A905A817F08EF9E1
:1030000005AD1CE0019B9B0713D1019B7F4A1B6808
:10301000934202D1019B1D1D11E07D4A934208D1CC
:10302000200017F07BFD019A011C3000FDF76EFDBA
:10303000EAE0019A2900300008F098FAE4E0092E4D
:1030400001D0162E0DD1200017F068FD041C2800B9
:1030500017F064FD011C201C0EF02EFCFDF7FAFC9D
:10306000D2E0182E00D9A8E0FFF7F8FE07003000E4
:103070000EF06EF95D635769690D11171DC93F8028
:10308000875D635769690D11171DC93F8000381DA1
:103090002A00210042E0381D2A00210017F045FBDC
:1030A0006DE0381D2A00210017F01DFC67E008A81C
:1030B0003E1D17F0F4F82B00220008A9300006F09E
:1030C000A9FC22782B785340DB070ED508A817F00F
:1030D00018FA002809D101210BA8494217F014F968
:1030E0000BAA3100300017F0E8FA08A817F0E3F84F
:1030F00045E00BA83E1D17F0D2F82B00220031004E
:103100000BA806F087FC0BA817F0D5F822782B78CF
:103110005340DB0733D52A003100300017F0CDFAD9
:103120002DE0381D2A00210006F0E6FB27E0381DBF
:103130002A00210017F03DFB21E0381D2A00210064
:1031400017F088FB1BE00198FFF71EFF021E05DA4F
:103150003049314817F0DDFD0BF025F9381D21000D
:10316000032E01D0102E02D106F04CFB07E017F021
:103170003CFA04E0381D2A00210017F037FC380023
:1031800042E0FFF76BFE3E1D01902B002200043051
:10319000310006F03FFC22782B785340DB0704D542
:1031A0002A003100300017F088FA019B0BA9022099
:1031B0000B930C9706F032FE26E02900200017F052
:1031C000A5F9193E03000020042E1DD830000EF092
:1031D000BFF80307130B0F001048002B14DA0EE0A2
:1031E0000E48002B0BDC0FE00C48002B0CDC06E03B
:1031F0000A48002B03DA07E00848002B04D10848EE
:1032000002E0180000E000200FB0F0BDD409020079
:1032100010E20100CE270200A0010200E0F8010048
:103220009CF8010000487047A8F4010010B588B070
:1032300001AA6946040007F039F8009B022B2AD93D
:1032400002AA322104A809F077FC019B13495A68AD
:1032500002A818F029FB200002F0EAFC104BC2681B
:103260009A4210D123680F495A6802A818F01CFB33
:10327000E368002B07D05A68002A04D0002299681E
:1032800002A802F0E5FC04A818F019F9FDF7A0FA6D
:1032900004A818F0C5F808B010BDC046E327020026
:1032A00049A00000EC27020070B50A008CB00100B4
:1032B00000230A2005F0BEFD051E03D1164812F0BA
:1032C00033FC27E068460BF053F8041E17D12E6834
:1032D00001212800FFF7C2FB23002200310014F077
:1032E00020FF04000320FDF701FA200017F067FD1E
:1032F00001204042FDF7FAF90BF050F80AE00120F6
:103300004042FDF7F3F90548019902F0C5FC019828
:10331000FFF78CFF0CB070BDF027020018140200FC
:1033200007B5E120174B01AAC0001A6009F0E4FBC1
:10333000982315489B01C11801F0B6FC07F00CF862
:10334000FDF7B2F9F8239B021988104A914203D184
:1033500059880F48FFF7A8FF0E4B1B78002B0ED1A2
:1033600009F07CF80028F7D00B4813F0A2FF0822E0
:1033700000210A481AF019FC17F01DFD07BD09F0DD
:10338000C9F8EFE7D0260020D00000204D50000003
:1033900004E003007C0000201D2802008C2E002089
:1033A00007B501F007FD054B01A81968091A89083E
:1033B00001F0BCFC01F012FD07BDC046D026002084
:1033C000F0B50700443787B00400380001910026AB
:1033D00018F049F82069431C18D00A2804D12000AD
:1033E00015F024FF0126F5E70AF080FE002823D11E
:1033F0002369232B08D1200015F018FF23695A1CDC
:10340000E8D00A2BF7D1E5E75C2B07D0E369256A02
:10341000019AA363E563002A12D117E0200015F09A
:1034200005FF23690A2B07D0E369A363236AE363DB
:10343000042340342370EEE2200015F0F7FEC9E7C4
:10344000012B03D10622012D00D064E1636A002B19
:1034500004DA22000721403211702FE0002B06D041
:103460002200062140321170013B6362A2E1002E6E
:1034700039D0A36A002B36D12100052240310A70D1
:103480006362226BB64B606BD3185B001B5A013D25
:103490009D4200D1BFE213D9E16A8A4207D30831C5
:1034A000490018F0D6F8E36A60630833E362236BDF
:1034B0005A1C2263626B5B009D52636A0133D4E73E
:1034C000236BA74A9A185200125A954205D2013B23
:1034D0002363636A013B6362F2E7954200D19AE29B
:1034E00002230B7066E12069431C1BD19C4A236BAD
:1034F000616B9B185B005A5A23004033002A00D1AD
:103500000BE105221A7000236362954A236B9A1817
:103510005200525A002A00D17DE2013B2363636AC4
:10352000013BF1E7272800D167E1222800D164E1BF
:10353000752804D0102302009A43622A04D16369DB
:10354000272B11D0222B0FD0722803D16369622B55
:103550002CD104E0622829D16369722B26D1A3699A
:10356000272B01D0222B21D1752803D1200015F063
:103570005DFE42E162280ED1200015F057FE0023C7
:1035800001932369722B00D031E1200015F04EFE2B
:10359000012301932BE1722800D02EE1200015F0C9
:1035A00045FE2369622BF0D0012327E10AF0AAFD32
:1035B0002169002803D15F2901D07F291ED923006A
:1035C000082240331A70C9B2380017F08BFF200070
:1035D00015F02CFE2069431C00D1EBE00AF092FDAF
:1035E000002801D0217CEFE720695F28FAD07F28EE
:1035F000F8D80AF093FD0028F4D1DBE008000AF0C7
:103600008DFD002808D02500236940352E2B0CD1D4
:103610000A2300262B7011E023692E2B49D1606903
:103620000AF07CFD0028EED143E0092200262A7032
:10363000302B03D160690AF065FD0600216938006E
:1036400009F086FA200015F0F1FD2069431C00D135
:10365000B0E0002E14D1030020229343452B0FD15C
:103660003B3B2B706521380009F072FA200015F001
:10367000DDFD216902220B002B3B9343E5D1DEE700
:103680000AF040FD002803D021692E2909D10DE060
:1036900020690AF043FD0028F6D123692E2BF3D0D0
:1036A00088E00B00202293434A2BC8D10A232B70B9
:1036B000C5E721692E2903D000262A4D02221CE0ED
:1036C0002600380009F044FA200015F0AFFD236908
:1036D00040362E2B00D07AE165692E2D00D076E1A0
:1036E00077E1B94211D03B00633B9343DBB2681CE6
:1036F000002B06D10500013601352F78002FF0D1BF
:1037000003E0452FF7D1013EF4E7200015F08EFDD0
:10371000002F04D10122230040331A704AE0370001
:1037200001352B78652B0CD16B78226901379A42D1
:1037300005D12000013515F079FD3E0001E002358C
:10374000EFE72B78452B0FD16B7822699A4204D191
:10375000200015F06BFD3E0013E0012213E0C0468F
:10376000FFFFFF7F56280200632B0AD16B78226986
:1037700001379A4205D1200015F058FD02353E0070
:10378000CFE7A64B9A5D230040331A7023004033E5
:103790001B78042219009143422901D0442B02D105
:1037A000A36A013305E0432901D0452B02D1A36A66
:1037B000013BA362200040300378082B00D02AE1AF
:1037C0000023E56C964EA46C9A00915900228F1844
:1037D000944204D13A78002A00D018E10AE18F5CC3
:1037E000BC46AF5CBC4500D011E10132EFE72300DD
:1037F0000C2240331A70012306E0002301932300BA
:103800000B2240331A700023049323690393222B65
:1038100001D027230393200015F008FD0123039A0C
:103820000593236993420BD1131E6269934207D11A
:10383000200015F0FBFC200015F0F8FC0323059395
:10384000002623690293013300D1A6E0059B012BDA
:1038500003D1029B0A2B00D19FE0059BB34200D805
:10386000A2E0029B039A934205D111003800013671
:1038700009F06EF98DE0029B5C2B00D083E0200004
:1038800015F0D4FC019B25690299002B67D1622DAC
:1038900028D012D84E2D67D007D8222D64D0272DDE
:1038A00062D000260A2D74D043E05C2D5CD0612DDF
:1038B00000D188E0552D3CD11CE0742D00D184E06E
:1038C00007D86E2D10D0722D12D0662D31D10C2557
:1038D0004DE0762D0AD00DD30226782D16D06B1C24
:1038E00027D155E0082542E00A2540E00B253EE0BF
:1038F0000D253CE0049B002B04D05C21380009F02E
:1039000027F934E00826752D00D1043E0025013E3C
:1039100028D3200015F08AFC2369180002930AF0CE
:1039200009FC002845D0029818F0FFF82D012D1849
:10393000EDE72B00303B072B10D803261D006369F1
:10394000303B072B0ED8013E002E0BD0200015F087
:103950006DFC2369ED00303B5D19F0E75C21380018
:1039600009F0F6F86B1C13D02E4B9D4210D8049B27
:10397000002B04D12900380009F0EAF808E0FF2DF7
:1039800006D8E9B201E06B46197A380017F0AAFDB3
:103990000026200015F04AFC53E7059BB34203D9EB
:1039A0002300032240331A703100380017F0BFFDA6
:1039B00000E72300012240331A70049B0500002B0E
:1039C000DFD11D00D6E70725D1E70925CFE74A2338
:1039D0000EE02900380009F0BBF82900380009F092
:1039E000B7F8200015F022FC200015F01FFC0D2375
:1039F0003370DFE6212B07D10B4B0433DA6F0E2334
:103A0000002A02D1023300E00E33037003E00133D9
:103A1000222B00D0D8E607B0F0BDC0462B2802000C
:103A200090EB0100FFFF1000282E002010B50400CD
:103A30000C2017F0E9FD034B446003600023836012
:103A400010BDC04618EC0100032313B50B40040061
:103A5000022B04D1880801A915F0EAFC02E08B686A
:103A6000C8680193002C07D0012C0BD1019918F0E4
:103A700038F84000204306E0019B0348002B02D1A8
:103A8000024800E0002016BD9CF80100E0F80100AB
:103A90000323F0B50B4085B004001500022B05D1BF
:103AA000880803A915F0C4FC060002E08B68CE6804
:103AB0000393002D06D13300039A3249200017F0FA
:103AC000F3FE5CE031000022039BF3180093009B9F
:103AD0008B420ED90B78272B04D0223B5D425D41EF
:103AE000EBB201E0002301220131002BEFD02727A8
:103AF00003E02727002A00D0053F234D3A00290084
:103B0000200017F0D1FE0195009BB34232D930005E
:103B100017F0B4FF0500300017F0CBFF0600AF42EE
:103B200002D13A00194921E019495C2D0FD02B0030
:103B3000203B5E2B02D82A00019917E015490A2D77
:103B400005D015490D2D02D0092D04D113492000AF
:103B500017F0DDFDD8E7FF2D02D82A00104905E057
:103B6000104B2A1E10499A4200D91049200017F024
:103B70009BFEC9E73A000199200017F095FE05B0B9
:103B8000F0BDC046172902001D2902001C290200B1
:103B900020290200232902002629020029290200E7
:103BA0002C290200FFFF0000332902003A290200FD
:103BB000F7B51F0008AB0C0016001D78FB0702D5F7
:103BC0007F1001970EE001A9380002F04DF900289E
:103BD00008D1380015F038FE1F4902001F4806F0D2
:103BE000BFFA11E0019BA019002B1ADA00213F2631
:103BF000013884420AD9002900D00193002D28D130
:103C00001749184806F0ACFA0AF0CDFB0278B24327
:103C1000802A01D0012101330138002BE9D1013084
:103C200018E0002B15D000223F21844205D3002A42
:103C300000D00193002D0DD1E2E722788A43802A3B
:103C400001D10134F9E7002B03D00134013B0122FB
:103C5000EBE72000FEBDC0464129020090060200AD
:103C600069290200FC020200F0B587B006000D00D1
:103C7000170001F0DDFF032304003340022B05D1C0
:103C8000B00802A915F0D4FB060002E0B368F6689C
:103C90000293042F4ED1AB0735D1284B2A689A42A4
:103CA00031D105AB04AA03A9280013F00BFB059B37
:103CB000234FBB4204D0032B02D0224807F0CAFA9C
:103CC000039B3500BB4207D0012231000092200047
:103CD000029AFFF76DFF0500049BBB4208D001224A
:103CE000310000922000029AFFF762FF010001E01C
:103CF000029BF11806208D421DD84A1B2000290086
:103D000015F0F5FE17E00023029A009331002B0016
:103D10002000FFF74DFF0278012153B2002B05DA96
:103D200040231A4202D001315B08FAE7012204F075
:103D30002FF900E0002007B0F0BDC0465CE10100B3
:103D4000A8F4010083290200074BDB68002B09D08F
:103D50005A68824204D8801A04308000C05802E0B9
:103D60001B68F3E718007047282E002070B5114D2E
:103D70000400EB689868DB6883420FD30230C00010
:103D800017F042FCEB685A68D96803609B685218C8
:103D90005B00836000234260C360E860E968CB6831
:103DA00048685A1C04339B000138CA6080185C5074
:103DB00070BDC046282E0020074B4118884205D20E
:103DC0005A01D318027801305340F7E7D8B20028DF
:103DD00000D101307047C04605150000024B034A70
:103DE000DA600022DA667047282E002060ED0100BC
:103DF000F0B585B001900E00FFF7DEFF144B029086
:103E0000DC68002C21D0270010373D00E3689B00C0
:103E1000FB180393039B9D4215D22868029A0378EE
:103E20009A420ED143789E420BD102303200019962
:103E300019F08EFE002804D1E81B63688010C018BA
:103E400004E00435E6E72468DBE7200005B0F0BDB8
:103E5000282E0020F7B50D000190FFF7C9FF0028BC
:103E600044D1234CEE1CE36E002B14D0626F216F03
:103E7000B2188A420FD902007118180017F0F6FB29
:103E8000071E05D1616FE06E17F0E3FBE76602E005
:103E9000236F9B192367E36E002B11D1371E7F2FF1
:103EA00000D88027380017F0BCFBE066002804D15A
:103EB000300017F0A9FB3700E0660023276763672F
:103EC000636FE26EF61829000198D7186667FFF74E
:103ED00073FF7D7038702A00B81C019919F047FEF5
:103EE00000237D19AB703800FFF740FFFEBDC046D0
:103EF000282E0020F0B51D001600002307000360E7
:103F00000B6033602B601B4B85B0DC680291002C8A
:103F100029D0194B9C4226D03B6801333B60E268B4
:103F2000029B94461B68029A63441360230010337B
:103F30000193E368019A9B00D3180393019B039AB2
:103F4000934208D2019B01CB019301F0C9F8336879
:103F500018183060F2E7200001F0C2F82B682468DE
:103F600018182860D3E733682A68D3182B6005B087
:103F7000F0BDC046282E002060ED01000C4B70B54E
:103F8000DC68002C12D00B4B9C420FD02600E3685B
:103F900010369D007519AE4206D204CE0649023293
:103FA000064817F081FCF6E72468EAE770BDC046D2
:103FB000282E002060ED0100BA290200181402002A
:103FC000F0B58BB0079310AB20CB01911B78062A7C
:103FD00011D8012A05D93F230B700B00013301933F
:103FE00001E0002A02D0002301990B7001239342C3
:103FF000A441604201E2002808DA019B01995C1C9F
:104000002D2340000B704308009308E0002B04D0E0
:10401000019900904C1C0B7001E0019C0090009FE6
:10402000FF213800019BC9050993084020238842DD
:104030001BD1079A78021A4013004E21E21C002877
:1040400008D1594061704621493058404B4020709A
:10405000A37005E041201943434021706370A170B3
:1040600000231370019BD01AC7E1002D00DA06254A
:10407000079919430391672904D1002D00D0ADE1C0
:104080000125ABE1002F0BD1039B652B00D18EE105
:10409000662B00D0E1E06E1C049302970597EDE0DB
:1040A000019B013A181B83180493C44B00269F42BE
:1040B00075D8202337000293C14B0099F0580DF0BA
:1040C0003BFA002807D0029B0098FF18BD4BF1581F
:1040D0000DF0D2FC0090029B04365B100293182E68
:1040E000EAD1FE21009889050DF012FA00280ED0C1
:1040F000B54900980DF02AFA002808D0FE239B0548
:104100000093002F0DD12B23029306330CE000986F
:10411000AE490DF0B1FC2D2301370293009003331B
:1041200002E02D2302930433039A662A03D0672A00
:1041300029D1042F27DC049A23707B199A4201DCD1
:10414000D51B013D039B672B01D17B1EED18002D74
:1041500008D101235B420593673301342E00029599
:1041600004938BE02E232E0030226370A31C013FAA
:104170001C00002F5BD0002E03D01A70013E0133CB
:10418000F5E7029654E0049B053BAB4200DD21E1DC
:10419000039A672A51D0049D1300063D4FE0202367
:1041A00037000293874B0099F0580DF0BBF90028B7
:1041B00007D0029B0098FF18814BF1580DF05CFC72
:1041C0000090029B04365B100293182EEAD1039BE9
:1041D000662B0CD1049B9F420CDA7B19049A0133A5
:1041E0009A421CDCD21B951E19D5551E17E0039B65
:1041F000652B0BD1049B053BAB4227DC2B23002610
:10420000049D0293063D05963A330EE0039B672B0F
:1042100000D0ECE0AF4200DBE8E0FB43ED18002308
:104220007E19029301360597663304930AE00297DC
:1042300001235B4205936733F7E71D00039B0026CC
:1042400004930596EB43DB171D400BE02B230293F1
:10425000002305936533049307E03E00039B029718
:1042600004930597049B652B01D16E1C06E0049B0B
:10427000672B03D12E1E01D101352E00002306939A
:10428000069B9E4220DD00980DF05AFE631C0893A9
:10429000030030332370059A069B934205D1002D0D
:1042A00003D0A31C08932E2363700DF06BFE011C3A
:1042B00000980DF0CDFC45490DF0DEFB069B00900B
:1042C00001330693089CDBE7414900980DF03EF965
:1042D00000283FD03021631E1A782E2A01D1013BDD
:1042E000FAE710003038092801D9013303E0392AF0
:1042F00003D001321A70019303E0019A19709342BE
:10430000EDD1019B1B78302B1BD1019A52782E2ABC
:104310000BD10499662908D001994B70029B0A7051
:104320002D2B01D1013F00E0013701342300019A18
:104330009A4204D25A1E117819701300F7E73123FC
:1043400013701E4B009A9A4204D8049B663B5A4253
:104350005341ED1A039B672B09D1002D07DD230084
:10436000013C2278302AFAD02E2A00D01C00029B71
:10437000002B17D02023079A0A211A401300452248
:10438000134323706B461B7A380063700DF04CF8B2
:104390003030A0700A2138000DF09CF8251D303116
:1043A000E1702C0000232370099BE01A25E0039B99
:1043B000059704932B23029357E7C046FFFF7F3FE7
:1043C00014F30100FCF20100F8FF7F3F00002041E0
:1043D0000000A040039B002604930CE0002F00D0B7
:1043E0005EE6672302970493059743E7039B0493D4
:1043F0002B2300260293059634E70BB0F0BDC04690
:10440000002805D0012809D18B685B00184306E01D
:104410008B680348002B02D1024800E0002070475F
:104420009CF80100E0F8010000228168F0B5CB0F94
:10443000094C5B185B100E199A420BDAC568B11A69
:10444000940089002C196D5827682560C4680132D2
:104450006750F1E70148F0BDFFFFFF3FA8F40100FE
:1044600070B583680D00416804008B4212D3C90007
:10447000C06817F0EEF863680A495A00A3686260E2
:10448000D21A013352189B00E0609200C01800213C
:1044900019F08BFBA368E268591C9B00A1600248DD
:1044A0009D5070BDFFFFFF3FA8F40100F8B5070065
:1044B00016004C10836803D5E418E243D217144069
:1044C000A34200D21C000C4D38002900FFF7C8FFA2
:1044D000AC46BB6809495A1E5B189B001D1FF96852
:1044E000944204DA4859013AC8502B00F6E7A40078
:1044F0000E516046F8BDC046A8F40100FFFFFF3F23
:1045000070B50025040085601021C06817F0A1F87F
:1045100004232900E0606360102219F046FB014883
:1045200070BDC046A8F4010030B50C0085B0104B3A
:1045300002AD0431009301380223019508F0A0FE7A
:1045400023680C4C996801290FD9D8680A4B029A44
:10455000C91889004118A24200D100222D79074BC9
:10456000002D00D1064B14F07AFF200005B030BDBD
:1045700068F30100A8F40100FFFFFF3FE0F801002D
:104580009CF80100F8B50C680B00A1680200002936
:1045900005D11A491A4816F0BCFB09F004FF20683F
:1045A000012A01D05A6801E001225242002301F0A1
:1045B000EDFCE36886009F19A3683D68013B1A1A69
:1045C000A360E368311D59189200380019F0D8FA39
:1045D0000021A368E0689A001150616804290BD992
:1045E0005B00994208D949088900E06817F031F862
:1045F0006368E0605B0863602800F8BD1138020062
:10460000FC02020007B5009001910220694614F0F7
:1046100086FF694601900220FFF7B4FF00480EBDF7
:10462000A8F4010070B50E000D490500002417F034
:104630006EF8B3689C420ED2002C03D009492800C2
:1046400017F065F8F168A30001225958280001F01D
:10465000FFFA0134EDE72800034917F058F870BD60
:1046600026610200512302009766020070B50326FE
:1046700004000D000E4028D1174B0A689A4224D13D
:1046800083688A6899184368994210D9043189006F
:10469000C06816F0DEFFAA68A368E0609B181A1DC8
:1046A0009B006260C0181022310019F07EFAA368E6
:1046B000E9689800E3681818AB689A0019F057FA8F
:1046C000AB68A268D318A36003E02900200014F0AF
:1046D0002FFF024870BDC0462CF30100A8F4010072
:1046E00010B504000C2016F08FFF034B44600360EC
:1046F0000023836010BDC046FCF301000B4B70B576
:10470000050003600C00081E042800D20420686025
:10471000AC60800016F078FF6A68E860121BA400A5
:1047200092000019002119F040FA70BD2CF301002D
:104730007FB50D00160012282AD004D8052807D00E
:1047400007282BD057E00300193B042B41D952E036
:104750000322002332409A424ED113003168284A86
:10476000914249D1AB68B268981814F0F9FE040080
:10477000AB68E9689A00C06819F0F9F9A868E368BD
:1047800080001818B368F1689A0019F0F0F91EE07B
:1047900011002800FFF76AFF2B002DE003A910008D
:1047A00001F062FB0023984226D0039A9A4200DA75
:1047B0000393AB680398584314F0D2FEC368040017
:1047C0000093AA68039B0421E86817F078F8230097
:1047D00012E093070DD10A4B12689A4209D1B368CF
:1047E00000938A68F368C96809F0C4F8054B00288B
:1047F00002D1054B00E00023180004B070BDC04694
:104800002CF301009CF80100E0F80100F0B5040071
:1048100087B017000326002A1BD10E4012D1544B3B
:104820000A689A420ED103AA806809F069F80499CF
:10483000039BA268E0685D1A521A89009200411831
:104840009B007CE00491022003A90394FFF79AFEE9
:104850008AE0042A2CD1314220D1454B0A689A4281
:104860001CD103AA806809F04BF8002805D103AADF
:10487000E168A06817F036F877E0039B0498C01A47
:1048800014F06EFE05008368E1689A00039BC0681F
:104890009B00C91819F06BF9280066E000230A0094
:1048A0002068A16801F072FBE3688000C0585CE0FA
:1048B0000E4055D12E4B0A689A4251D103AA806806
:1048C00009F01EF8BA680398049B15180193ED1AB5
:1048D000002D22DDA368E9186368994207D9890091
:1048E000E06816F0B6FEA368E0605B196360039BA6
:1048F000A268E668E818D21A990080007118920040
:10490000301819F03DF9039BF9689800E36818180E
:10491000BB689A0019F02BF91EE0E3688000F96883
:104920001818920019F023F90499B868A268039F37
:10493000E368521A38188900920059188000181834
:1049400019F01EF9A368AA00E818E3688000524233
:104950001818310019F029F9A3685D19A56003E062
:104960003A00200014F03DFE024807B0F0BDC046FA
:104970005CE10100A8F401003E2803D0402809D0E2
:104980003C280ED14239C9B22F290AD8084B585CAD
:10499000012308E0712904D8064B585C064B5B568E
:1049A00001E001230020002A00D013607047C046B8
:1049B0002538020055380200C7380200F7B5170045
:1049C000156801AA04000E00FFF7D6FF402C05D1A0
:1049D000019B043C5A1EAD185B421D405A213E3CCF
:1049E00062426241B14289412B183B60D2B22B0036
:1049F000494214F05CFE04000D004F2E2FD0532EC0
:104A000007D119F037FA00220100200003F0C0FAA4
:104A100025E0662E03D0642E04D10EF087FBFCF750
:104A200019F81CE05A2E0FD980220023D205121942
:104A30006B41002B04D1002A02DB14F0A1FB0EE035
:104A4000290014F08EFB0AE0002905D1044B98429E
:104A500002D814F0B0FB02E0290014F09DFBFEBD6B
:104A6000FFFFFF3FF0B587B0140003AA07000E0058
:104A700001931D68FFF780FF0090402F05D1039B35
:104A8000043F5A1EAD185B421D40009B019AEB1873
:104A900013603E3F642E09D0662E02D04F2E22D1E5
:104AA00040E0200001F006FA04003BE0200001F0A5
:104AB00001FA0EF0EBFA0490059179427941C9B2FE
:104AC0008B0006AAD318083B2A001B68042014F0A8
:104AD00017FE3B005A1E934106AA9B00D318083BC1
:104AE00004351C681EE0A3070CD1154B22689A42BE
:104AF00008D1794279412B00C9B2009A200014F004
:104B000020FB1AE0200001F071F9009B0400042B47
:104B100008D95A2E06D9002804DA1A1F281DFF21A9
:104B200019F043F8794279410098C9B2042800D9B4
:104B3000042023002A0014F0E3FD07B0F0BDC046B6
:104B4000D409020070B505000E0014001800642D91
:104B50000CD0662D04D04F2D11D19400A35127E025
:104B600094000E1901F0A6F9306021E0D4000E196E
:104B700001F0A0F90EF08AFA3060716018E020238D
:104B80002B43712B0CD10321014009D1094B026841
:104B90009A4205D1E300F318082214F0D2FA07E094
:104BA00001F024F9220003003100280014F0BCFDBC
:104BB00070BDC046D4090200054B002805D0002373
:104BC000022802D101224B00134318007047C0464F
:104BD000E0F8010010B5024916F099FD10BDC0467D
:104BE000942D02002C4BF7B58C3303219C462A4AA6
:104BF0002A48FC32D36983424DD9043BD3611A68F9
:104C0000254B541C0833DE6F2500A308F35C0D40D0
:104C10006D002B41A01A0B400134022BF4D06346E7
:104C20001B6812011C4C9A1880000028DFD00F2549
:104C300013682B422CD11A4D2D68AB4228D3260085
:104C4000903636689E4223D95B1B1D0900952500CE
:104C50000835ED6F9B09EB181E78009F35000F405B
:104C60007F003D4101930D40012D11D10B00BB4050
:104C70001E43019B0B4F1E702600FC36F369BB429E
:104C800003D21D1DF561009D01E0230094331D60DA
:104C900001380432C9E7F7BD282E0020C02E0020BD
:104CA000B42E0020402F00200F23994370B506003A
:104CB0000D00081A41210CF069FB0E4C0200210086
:104CC00023008831086021000833DE678301EB1A76
:104CD0008C310B6023003000903300211D6018F0F0
:104CE00064FF22000023FE34FC325362E38301336D
:104CF000238470BD282E0020024BFE33DA8B013254
:104D0000DA837047282E0020024BFE33DA8B013AFB
:104D1000DA837047282E0020034BFE33D88B431EC6
:104D20009841C0B27047C046282E0020F7B5002435
:104D3000032500900191019B9C4236D0009AA3006C
:104D4000D3580F2213422CD1184A11008C31096814
:104D50008B4226D3100090300068984221D95B1A0C
:104D600019098C4611000831C96F9B09CB181878B6
:104D7000674601002F407F0039412940012910D1A9
:104D80002E00BE40304318701000FC30C369084F3D
:104D9000BB4204D21A1DC26162461A6001E094321D
:104DA0001160FFF71FFF0134C5E7F7BD282E002073
:104DB000402F002010B5FFF79FFF06480022030098
:104DC00094331A600300044AFC331E21DA61FFF7B2
:104DD000ADFF10BD282E0020C02E0020F8B5032600
:104DE0002C4C0025220094321368AB4220D02300C3
:104DF0001560294AFC33DA612300220088331B68DE
:104E000008329B009D42EBD2D26FAB08D35C2A00E4
:104E10003240520013413340032B07D12200FC32B1
:104E2000D369191DD1611D60FFF7DCFE0135E3E791
:104E300002221E00032794462200210088321268B5
:104E40000831920093421FD2CA6F98081218117845
:104E50001D0008003D406D0028413840022805D063
:104E600003280AD001280DD1060001E0002E09D048
:104E70000320A8408143117004E06046A84000264A
:104E8000814311700133D7E70023FC346362FFF7DD
:104E90003BFFF8BD282E0020C02E0020264AF0B58A
:104EA0001300110090338C3109681B6803265B1ACC
:104EB0001100036000230831CD6F19008832146897
:104EC00043608360C36003614361A400A1422CD0AE
:104ED0000F008A08AA5C37407F003A413240012A1D
:104EE00012D8012B03D1C7680137C76004E0022B39
:104EF00002D10769013707614769BB4200D94361A5
:104F0000012A0CD0002A06D0022A0CD142680133B3
:104F10000132426007E083680133836002E0436846
:104F20000133436013000131D0E743681B01436044
:104F300083681B018360F0BD282E0020454AF0B530
:104F40001300060085B00190FE33DC8B0F36360966
:104F50000292002C01D0002079E0002EFBD0198CA9
:104F60004B4259413B4A3F271300100088321268D8
:104F7000FC3303923022944608305B6AC06F039A78
:104F8000934228D20325C25C2A4204D10134A642AE
:104F900002D89B0025E000240C252A4205D10134CB
:104FA000A64203D89B0001331BE0002465462A4239
:104FB00005D10134A64203D89B00023311E000243E
:104FC000BA4305D10134A64203D89B00033308E05D
:104FD00000240133D3E70029BDD1FEF7E1F9012117
:104FE000C0E7191B4E1C012C04D11A4A5C1CA408F2
:104FF000FC325462B20880183700032201241740A3
:105000007F00BC40077802313C43022704708B428A
:105010000ED3029C88080834E46F3D0020180C0071
:1050200014406400A540047801312C430470EEE77D
:10503000029A01338C32146831019A1B019B641867
:105040001601F21AE018002118F0AFFD200005B09B
:10505000F0BDC046282E0020204B70B51A00FE324D
:10506000D28B002A39D1020737D11A008C3212684C
:10507000904232D319009031096881422DD919002C
:105080000831801AC96F020980090C5C15000321E0
:105090000D406D002C41214001291ED11900FC3129
:1050A0004C6AA04200D2486203201D000835EC6F14
:1050B000910861181400060004406400A6400C78B2
:1050C0000132B4430C70EC6F9108615C1400044031
:1050D0006400214101400229E7D070BD282E002044
:1050E00003000F2070B5184026D1144A11008C31EE
:1050F00009688B4221D31400903424689C421CD947
:1051000008325B1AD46F19099B09E25C0D00032376
:105110001D406D002A411A40012A0ED14D1C2E005F
:10512000AA08A25C1E4076003241681A1A40013576
:10513000022AF4D0000100E0002070BD282E0020DB
:10514000F0B55C4E04003300002085B0009102925F
:10515000FE33DB8B834200D0A9E0844204D12100DE
:105160000098FFF7EBFEA2E0009A002A04D120008D
:10517000FFF772FF00989AE00F211800214000D03D
:1051800095E033008C331A680800944200D28EE018
:10519000330090331B68A34200D888E03000083009
:1051A000C06FA21A13099209855C03271A003A40BE
:1051B000520015412A0001903A400800012A76D198
:1051C0001500009888360F3000098446306880004A
:1051D0000390581C039A904213D2019E8208B25C3D
:1051E00006003E40760032413A40022A01D10135A4
:1051F00005E0002A05D101316A18944501D9013032
:10520000E8E765451FD020D96246981806000322BA
:105210005B19284900930F000837FF6FB5087F1905
:105220003500130015406D00AB403D7801369D43BD
:10523000009B3D709E42EED10B00FC33596A820800
:105240008A4200D25A62200031E049198C451DD8AB
:1052500003260227EA1863449A420ED215489108A1
:105260000830C06F3D0041181000304040008540BC
:105270000878013228430870EEE763461A01009B64
:105280000021D21AE01818F090FCDCE70298002800
:105290000DD000210098FFF751FE061E07D02A010D
:1052A000210018F064FC2000FFF7D6FE300005B0A6
:1052B000F0BDC046282E002010B58AB004A8FFF724
:1052C000EDFD069B094C03930093049A059B084946
:1052D000200016F0E9FA099B079A03930093054909
:1052E000089B200016F0E0FA0AB010BD1814020066
:1052F000393902005C390200F8B53E4D3E4E2B00B4
:105300008C331A683D49300016F0CEFA00242B0089
:105310002A0088331B6808329B009C4221D23F211F
:105320000C422ED12700D06F0321BA08825C39408D
:1053300049000A4103210A4202D10137BB42F3D896
:105340003A1B7F2A12D992092D49300016F0ACFA87
:105350003C003F239C432B0088331B689B009C42EE
:1053600004D33000274916F0D2F9F8BD2A008C3258
:1053700012682301D2181203120B2349300016F0D1
:1053800093FA2A000832D26FA308D35C032222408A
:1053900052001341032213407132022B23D0073AEB
:1053A000032B20D02E22012B1DD12B008C331B6808
:1053B0002201D358154954228B4214D01449083A7B
:1053C0008B4210D01349083A8B420CD0124902325A
:1053D0008B4208D01149043A8B4204D010490B3259
:1053E0008B4200D01B320F49300016F05DFA0134B9
:1053F0008DE7C046282E00201814020090390200C4
:10540000AB390200DB600200C7390200AC000200C9
:105410002CF30100BCFE010010E20100D4E1010008
:1054200034E601001D29020070B50C0005000B6870
:1054300005495A6816F038FA2168280040312200E0
:1054400000F0F0F870BDC046B35C0200136870B5A0
:10545000002B11D10568EE6BB34213D09C002C19C0
:10546000246CA14201D00133F6E7591C0AD0023363
:105470009B001B58136005E00349044815F049FCE4
:1054800008F091FF70BDC046CF390200C40402008D
:10549000F0B585B00C00032502F0DCFD25400700C7
:1054A000002D03D11E4B22689A4205D01D491E488B
:1054B00015F02FFC08F077FF03AA02A9200014F0D2
:1054C00089F8029E039B300010308000019316F093
:1054D0009BF804003C22290018F067FB134B67601F
:1054E0002360134BE663A360124BE360124B6361CE
:1054F000124BA361124BE361124B2362124B6362A6
:10550000124B6363AE4208D0019BAF00D85902F042
:10551000A1FDE71938640135F4E7200005B0F0BDBE
:105520002CF30100E339020090060200900B020008
:105530002954000051550000A59D00005D9E00000B
:105540004D540000559F0000019E0000E8F401004A
:10555000F0B51D0085B0C36B00AFFB607A608B189F
:10556000FA6806000C009A4204D02A492A4804F03E
:10557000F7FD34E0FB688B4244D09A001300694683
:105580000E33DB08DB00CB1A9D4618000021BB6000
:1055900018F00BFB0023A2009A4204D0E858B96827
:1055A000C8500433F8E7F9687B688C4663447B6035
:1055B000AD1803E06A6802341A6008357B689C42C3
:1055C0001FD2286802F046FD00210200F36B3B6009
:1055D0003B68994205D111490F4804F0C1FD08F01C
:1055E000E2FE8B00F018006C824201D00131EFE73F
:1055F0000131F0D0B968CB1819680029DAD0084910
:10560000EAE7BD682900F86804F008FCBD460660BA
:1056100005B0F0BDF1390200900602002A3A0200FE
:105620004B3A0200F7B5019111490400170000251B
:1056300016F06DF87B689D4214D2002D03D00D4901
:10564000200016F064F8019BAE009A590A49200028
:10565000BE1916F029F90122B168200000F0F8FA0D
:105660000135E7E70549200016F051F8F7BDC046BF
:105670004F230200512302007A3A0200C63C020086
:10568000F0B589B00293436916000193CA680368B4
:1056900005009B18036003000C0014338360964AD6
:1056A000019B18309B189B00C2180C33EA60002144
:1056B0001A00049318F079FA0E9AB300D3180593E0
:1056C000227A019B617A9B1A5B1A05339B00039334
:1056D000EF18E17A022396420CD9194232D00E9B80
:1056E00091005918B01A04F099FB039B043F5851DC
:1056F000267A2DE0194203D0804B039A043F535180
:10570000029B002B24D1E37ADB0721D4207AA37AF1
:10571000C21A964216D31B1A9B000396039A824222
:1057200016D2039A9200D1188C46A44461460969A6
:105730008C4604998A1A6146AA185161039A01326B
:105740000392EBE733006E496E4804F009FDB6E0C2
:105750000022964208D00E9904989300C958C31AA3
:10576000EB1859610132F4E7029AE37A002A02D178
:10577000DA0700D49CE000265B0704D5029814F0F9
:105780003AFC060038602B6807A8079314F00FF85E
:105790002B68059F1B18049300230393039A029917
:1057A000237A8A422AD0607A00221B189C463968E4
:1057B000624514D0049B9000185881420DD1019B82
:1057C000013B9B1A9B00EB189A69002A02D08A08B9
:1057D0004D4969E07A689A610BE00132E8E70422FA
:1057E000E37A134201D1494966E07A68300014F047
:1057F0003BFC039B083701330393CFE7019AA17A5F
:10580000D31A06339B00E8180E000200CB1C9B0045
:10581000E318002E08D01768002F01D11F68176009
:10582000013E0432043BF4E7019A8B0006329200F9
:10583000C318AA18934208D20433191F0968002913
:10584000F8D1D21A921032492EE0002714E0A37A40
:10585000791804339B001859049B89000430C958F7
:1058600001F02EFD002818D0237AF61AF61B063612
:105870004368B60073510137637A9F4227D2019B78
:10588000217A5E1E731ADB1B06339B005A59002ACD
:10589000F1D10120E37A0342D9D1237A1D49DF19DE
:1058A000049BBF00FA589208164804F059FC06E021
:1058B000627A002A05D01849124815F02AFA08F031
:1058C00072FD5B0703D5029814F095FB3860E4681D
:1058D0006B68E4180134631E1A78FF2A09D0019B13
:1058E000013B9B1A9B00EE18B069FDF7ABFAB06163
:1058F000F0E76C6009B0F0BDFDFFFF3F340102002E
:10590000F1390200900602004B3A02007E3A020092
:10591000A73A0200D93A0200093B020070B505001F
:105920000C200C0015F070FE024B45600360846093
:1059300070BDC04600F50100F0B5456887B003931F
:10594000EB6804A802911700049313F030FF2A7A41
:105950006B7AD3189B001818EB681818059005A8E7
:1059600013F025FF060005A813F021FF03233200E2
:10597000584308321018800015F046FE0B4B040007
:1059800003606B68EA68436000238360059BC6611F
:105990009B1AC360039B08300093029A3B002900C6
:1059A000FFF76EFE200007B0F0BDC04684F5010091
:1059B00070B5050088680C0011F0CAFC23000200D5
:1059C0000249280015F070FF70BDC046303B020050
:1059D00010B5024815F090F908F0E5FC4C040200FF
:1059E00010B50400082015F00FFE024B4460036060
:1059F00010BDC0463CF50100F8B50400C0681D00AC
:105A0000002801D118602DE0200023691C3083425A
:105A100008D1154B994206D01449154815F079F96B
:105A200008F0C1FC19602000124E636811000830B4
:105A30007768736000F08CFD7760012806D0002342
:105A4000E360022809D023691B680AE023691B6808
:105A50002B60002B06D1E36004E0E36907339B0071
:105A60001B592B60F8BDC046A8F401004E3B020054
:105A700090060200282E002013B501AB1400FFF79A
:105A8000BBFF01280DD0184C02281CD0019BA3425B
:105A900028D0002B26D001AA0121144815F026F9A0
:105AA0000DE0002C0DD0200000F0C2F8104906F0E7
:105AB000BFF9002805D00F490F4815F02AF908F062
:105AC00072FC01980FE0019800F0B2F8074906F067
:105AD000AFF9002801D10198F1E7019804F020FB0B
